:020000040800F2
:1000000060060020450200084D0200084F0200086B
:1000100051020008530200085502000800000000C9
:10002000000000000000000000000000570200086F
:1000300059020008000000005B0200085D02000891
:100040005F0200085F0200085F0200085F0200080C
:100050005F0200085F0200085F0200085F020008FC
:100060005F0200085F0200085F0200085F020008EC
:100070005F0200085F0200085F0200085F020008DC
:100080005F0200085F0200085F0200080000000035
:100090000000000000000000000000005F020008F7
:1000A0005F0200085F0200085F0200085F020008AC
:1000B0005F0200085F0200085F0200085F0200089C
:1000C0005F0200085F0200085F0200085F0200088C
:1000D0005F0200085F0200085F02000800000000E5
:1000E0005F0200085F0200085F02000800000000D5
:1000F0000000000000000000000000005F02000897
:10010000000000005F0200085F0200085F020008B4
:1001100000000000000000000000000000000000DF
:100120005F0200085F0200085F0200085F0200082B
:100130005F02000800000000000000000000000056
:100140000000000000000000000000005F02000846
:100150005F0200085F0200085F0200085F020008FB
:100160005F0200085F0200080000000000000000BD
:10017000000000000000000000000000000000007F
:10018000000000005F020008000000000000000006
:100190005F02000800F002F800F044F814A696E8A8
:1001A000000CB244B344DA4501D100F03BF8BAE8A0
:1001B0000F000FA696E83000A5EB040504EB060738
:1001C000AAEB0704A7F101074FEA15154FEA34140B
:1001D000A4F10104AC4201D300F024F813F0010FA4
:1001E00018BFFB1A43F0010300F001F8DBE71847E2
:1001F000EC040000FC040000704700000023002411
:1002000000250026103A28BF78C1FBD8520728BF26
:1002100030C148BF0B6070471FB500F050FA1FBDDA
:1002200010B510BD00F031F81146FFF7F5FF00F0F2
:10023000BDF900F04FF803B4FFF7F2FF03BC00F084
:1002400057F800000948804709480047FEE7FEE7E5
:10025000FEE7FEE7FEE7FEE7FEE7FEE7FEE7FEE776
:1002600004480549054A064B70470000150500087B
:100270009501000860000020600600206002002058
:1002800060020020704770477047754600F02CF8F8
:10029000AE4605006946534620F00700854618B073
:1002A00020B5FFF7DDFFBDE820404FF000064FF01E
:1002B00000074FF000084FF0000BAC46ACE8C00957
:1002C000ACE8C009ACE8C009ACE8C00921F00701FE
:1002D0008D46704710B50446AFF300802046BDE858
:1002E0001040FFF7A8BF0000004870470000002042
:1002F00001491820ABBEFEE726000200704700004F
:1003000086B0FFE740F21441C4F202010868002001
:100310000860FFE740F21040C4F20200006800F0FD
:100320007000702801D1FFE7F4E740F21441C4F2F5
:100330000201086820F0FF000860086840F00E0025
:10034000086040F21040C4F20200006800F0700043
:10035000049004980390302810D0FFE703985028A9
:1003600008D0FFE7039860280CD1FFE701208DF843
:1003700017008FE002208DF817008BE003208DF826
:10038000170087E040F21441C4F20201086820F02F
:10039000FF000860086840F00D00086040F210405F
:1003A000C4F20200006800F070000490049802900B
:1003B000302810D0FFE70298502808D0FFE70298B5
:1003C00060280CD1FFE704208DF8170062E00520BB
:1003D0008DF817005EE006208DF817005AE040F215
:1003E0001441C4F20201086820F0FF0008600868A8
:1003F00040F00B00086040F21040C4F202000068B8
:1004000000F07000049004980190302810D0FFE7AD
:100410000198502808D0FFE7019860280CD1FFE729
:1004200007208DF8170035E008208DF8170031E01F
:1004300009208DF817002DE040F21441C4F20201AA
:10044000086820F0FF000860086840F007000860B6
:1004500040F21040C4F20200006800F07000049006
:1004600004980090302810D0FFE70098502808D05A
:10047000FFE7009860280CD1FFE70B208DF81700EC
:1004800008E00A208DF8170004E00C208DF8170012
:1004900000E037E79DF8170006B0704740F20041D2
:1004A000C4F2020108684CF20002C0F2FF021040E0
:1004B000086008685522C5F200521043086040F2F7
:1004C0000C41C4F20201086820F47C5008600868FE
:1004D00040F4A8500860704783B00290002001905B
:1004E000FFE701980299884212D2FFE700200090AE
:1004F000FFE70098C008AE2805D8FFE7FFE700989F
:1005000001300090F5E7FFE7019801300190E8E73E
:1005100003B070474EF68851CEF20001086840F4EF
:10052000700008607047000080B50021C4F202012D
:1005300008684FF6F0721040086008680522C5F29E
:10054000555210430860382000F098F80F2000F052
:1005500095F8062000F092F8012000F08FF880BD99
:1005600080B582B08DF807001421C4F20201009119
:1005700008684FF60372904308609DF807200868EA
:1005800040EA02200860086840F00100086008683E
:1005900040F0020008600520FFF79EFF0099086800
:1005A00020F00200086002B080BD000080B582B07B
:1005B0000020019043F63001C4F20201086840F0C7
:1005C00003000860FFF76AFFFFF7AEFFFFE7FFF7E2
:1005D00097FE8DF8030040F21441C4F2020108684E
:1005E00020F4704008609DF80320086840EA02305B
:1005F00008609DF803000B2804D1FFE7C02000F03D
:100600003DF81DE09DF803000C2804D1FFE7012010
:1006100000F034F813E09DF803000A2807D1FFE743
:1006200040F2D860C0F6000000F010F806E09DF837
:1006300003003030C0B2FFF793FFFFE7FFE7FFE7AB
:100640004FF4FA70FFF748FFC1E7000080B582B0B1
:10065000019000200090FFE701980099405C50B1A4
:10066000FFE701980099405CFFF77AFFFFE70098E9
:1006700001300090F0E702B080BD000080B582B08C
:100680008DF807001421C4F20201009108684FF6AA
:100690000372904308609DF80720086840EA022032
:1006A0000860086840F0020008600520FFF714FFAA
:1006B0000099086820F00200086002B080BDF1EEE9
:1006C000100A4FF6FF71C0F2C03120EA010040F07D
:1006D0004070E1EE100A704731300000EC0600086F
:0C06E0000000002060060000FC01000883
:0400000508000245A8
:00000001FF
