:020000040800F2
:1000000060060020450200084D0200084F0200086B
:1000100051020008530200085502000800000000C9
:10002000000000000000000000000000570200086F
:1000300059020008000000005B0200085D02000891
:100040005F0200085F0200085F0200085F0200080C
:100050005F0200085F0200085F0200085F020008FC
:100060005F0200085F0200085F0200085F020008EC
:100070005F0200085F0200085F0200085F020008DC
:100080005F0200085F0200085F0200080000000035
:100090000000000000000000000000005F020008F7
:1000A0005F0200085F0200085F0200085F020008AC
:1000B0005F0200085F0200085F0200085F0200089C
:1000C0005F0200085F0200085F0200085F0200088C
:1000D0005F0200085F0200085F02000800000000E5
:1000E0005F0200085F0200085F02000800000000D5
:1000F0000000000000000000000000005F02000897
:10010000000000005F0200085F0200085F020008B4
:1001100000000000000000000000000000000000DF
:100120005F0200085F0200085F0200085F0200082B
:100130005F02000800000000000000000000000056
:100140000000000000000000000000005F02000846
:100150005F0200085F0200085F0200085F020008FB
:100160005F0200085F0200080000000000000000BD
:10017000000000000000000000000000000000007F
:10018000000000005F020008000000000000000006
:100190005F02000800F002F800F044F814A696E8A8
:1001A000000CB244B344DA4501D100F03BF8BAE8A0
:1001B0000F000FA696E83000A5EB040504EB060738
:1001C000AAEB0704A7F101074FEA15154FEA34140B
:1001D000A4F10104AC4201D300F024F813F0010FA4
:1001E00018BFFB1A43F0010300F001F8DBE71847E2
:1001F000DC020000EC020000704700000023002435
:1002000000250026103A28BF78C1FBD8520728BF26
:1002100030C148BF0B6070471FB500F038F91FBDF3
:1002200010B510BD00F031F81146FFF7F5FF00F0F2
:10023000C3F800F04FF803B4FFF7F2FF03BC00F07F
:1002400057F800000948804709480047FEE7FEE7E5
:10025000FEE7FEE7FEE7FEE7FEE7FEE7FEE7FEE776
:1002600004480549054A064B704700003D03000855
:100270009501000860000020600600206002002058
:1002800060020020704770477047754600F02CF8F8
:10029000AE4605006946534620F00700854618B073
:1002A00020B5FFF7DDFFBDE820404FF000064FF01E
:1002B00000074FF000084FF0000BAC46ACE8C00957
:1002C000ACE8C009ACE8C009ACE8C00921F00701FE
:1002D0008D46704710B50446AFF300802046BDE858
:1002E0001040FFF7A8BF0000004870470000002042
:1002F00001491820ABBEFEE726000200704700004F
:1003000083B0029000200190FFE701980299884293
:1003100012D2FFE700200090FFE70098C008AE2847
:1003200005D8FFE7FFE7009801300090F5E7FFE709
:10033000019801300190E8E703B070474EF688510C
:10034000CEF20001086840F47000086070470000B9
:1003500080B5382000F076F80F2000F073F8062002
:1003600000F070F8012000F06DF880BD80B582B01B
:100370008DF807001421C4F20201009108684FF6BD
:100380000372904308609DF80720086840EA022045
:100390000860086840F001000860086840F002004A
:1003A00008600520FFF7ACFF0099086820F0020004
:1003B000086002B080BD000080B582B000200190CE
:1003C00043F63001C4F20201012008600021C4F2AA
:1003D000020108684FF6F0721040086008680522B4
:1003E000C5F2555210430860FFF7B2FF802000F0BD
:1003F00029F840F2B940C0F6000000F00BF8C02028
:1004000000F020F840F2A840C0F6000000F002F82A
:10041000FFE7FEE780B582B0019000200090FFE783
:1004200001980099405C50B1FFE701980099405C49
:10043000FFF79CFFFFE7009801300090F0E702B063
:1004400080BD000080B582B08DF807001421C4F291
:100450000201009108684FF60372904308609DF80E
:100460000720086840EA02200860086820F00100C0
:100470000860086840F0020008600520FFF740FFB0
:100480000099086820F00200086002B080BDF1EE1B
:10049000100A4FF6FF71C0F2C03120EA010040F0AF
:1004A0004070E1EE100A70472020205465636854C4
:1004B000616C6B73212020200020202057656C6325
:1004C0006F6D6520746F202020000000DC040008A0
:0C04D0000000002060060000FC01000895
:0400000508000245A8
:00000001FF
