:020000040800F2
:1000000060060020450200084D0200084F0200086B
:1000100051020008530200085502000800000000C9
:10002000000000000000000000000000570200086F
:1000300059020008000000005B0200085D02000891
:100040005F0200085F0200085F0200085F0200080C
:100050005F0200085F0200085F0200085F020008FC
:100060005F0200085F0200085F0200085F020008EC
:100070005F0200085F0200085F0200085F020008DC
:100080005F0200085F0200085F0200080000000035
:100090000000000000000000000000005F020008F7
:1000A0005F0200085F0200085F0200085F020008AC
:1000B0005F0200085F0200085F0200085F0200089C
:1000C0005F0200085F0200085F0200085F0200088C
:1000D0005F0200085F0200085F02000800000000E5
:1000E0005F0200085F0200085F02000800000000D5
:1000F0000000000000000000000000005F02000897
:10010000000000005F0200085F0200085F020008B4
:1001100000000000000000000000000000000000DF
:100120005F0200085F0200085F0200085F0200082B
:100130005F02000800000000000000000000000056
:100140000000000000000000000000005F02000846
:100150005F0200085F0200085F0200085F020008FB
:100160005F0200085F0200080000000000000000BD
:10017000000000000000000000000000000000007F
:10018000000000005F020008000000000000000006
:100190005F02000800F002F800F044F814A696E8A8
:1001A000000CB244B344DA4501D100F03BF8BAE8A0
:1001B0000F000FA696E83000A5EB040504EB060738
:1001C000AAEB0704A7F101074FEA15154FEA34140B
:1001D000A4F10104AC4201D300F024F813F0010FA4
:1001E00018BFFB1A43F0010300F001F8DBE71847E2
:1001F00024030000340300007047000000230024A3
:1002000000250026103A28BF78C1FBD8520728BF26
:1002100030C148BF0B6070471FB500F05AF91FBDD1
:1002200010B510BD00F031F81146FFF7F5FF00F0F2
:1002300071F800F04FF803B4FFF7F2FF03BC00F0D1
:1002400057F800000948804709480047FEE7FEE7E5
:10025000FEE7FEE7FEE7FEE7FEE7FEE7FEE7FEE776
:1002600004480549054A064B704700000103000891
:100270009501000860000020600600206002002058
:1002800060020020704770477047754600F02CF8F8
:10029000AE4605006946534620F00700854618B073
:1002A00020B5FFF7DDFFBDE820404FF000064FF01E
:1002B00000074FF000084FF0000BAC46ACE8C00957
:1002C000ACE8C009ACE8C009ACE8C00921F00701FE
:1002D0008D46704710B50446AFF300802046BDE858
:1002E0001040FFF7A8BF0000004870470000002042
:1002F00001491820ABBEFEE726000200704700004F
:100300004EF68851CEF20001086840F47000086093
:1003100070470000B0B58EB000200D900C9040F2F8
:10032000EC4CC0F6000CCDF804C0DCF80010DCF892
:100330000420DCF80830DCF80CE0DCF81040DCF8D5
:10034000145007950694CDF814E00493039202919B
:10035000DCF81810DCF81C20DCF82030DCF824C0B5
:10036000CDF82CC00A930992089143F63002C4F2EA
:100370000202012111600021C4F202010A68086032
:10038000086845F25552C0F25552104308600C21DE
:10039000C4F20201086820F070400860086840F06C
:1003A000A0400860FFE71020C4F2020000680004CB
:1003B00000283ED4FFE7FFE71020C4F202000068E7
:1003C0000004002801D4FFE7F6E70C9801300C90F8
:1003D0000C9A48F21F50C5F2EB1052FB00F1481185
:1003E00000EBD170642100FB11200C900C9A46F2B6
:1003F0006760C6F2666052FB00F3991001EBD3739D
:1004000053FB00F1880800EBD17000EB8000A3EBF8
:10041000400102A850F8211003EB8303A2EB430232
:1004200050F8220040EAC1101421C4F20201086011
:10043000FFE71020C4F2020000684004002847D4FF
:10044000FFE7FFE71020C4F2020000684004002824
:1004500001D4FFE7F6E70C9818B9FFE700200090F9
:1004600003E00C9801380090FFE700980C900C9A7C
:1004700048F21F50C5F2EB1052FB00F1481100EB9F
:10048000D170642100FB11200C900C9A46F2676039
:10049000C6F2666052FB00F3991001EBD37353FB75
:1004A00000F1880800EBD17000EB8000A3EB400165
:1004B00002A850F8211003EB8303A2EB430250F88B
:1004C000220040EAC1101421C4F202010860FFE7D3
:1004D00069E7F1EE100A4FF6FF71C0F2C03120EA71
:1004E000010040F04070E1EE100A70473F0000004C
:1004F000060000005B0000004F00000066000000E6
:100500006D0000007D000000070000007F0000007B
:100510006F000000240500080000002060060000B5
:04052000FC010008D2
:0400000508000245A8
:00000001FF
